{
  "_format": "hh-sol-artifact-1",
  "contractName": "MantlicAgentNFT",
  "sourceName": "contracts/MantlicAgentNFT.sol",
  "abi": [
    {
      "anonymous": false,
      "inputs": [
        {
          "indexed": true,
          "internalType": "address",
          "name": "owner",
          "type": "address"
        },
        {
          "indexed": true,
          "internalType": "uint256",
          "name": "tokenId",
          "type": "uint256"
        },
        {
          "indexed": false,
          "internalType": "string",
          "name": "agentName",
          "type": "string"
        }
      ],
      "name": "AgentMinted",
      "type": "event"
    },
    {
      "inputs": [
        {
          "internalType": "uint256",
          "name": "",
          "type": "uint256"
        }
      ],
      "name": "agents",
      "outputs": [
        {
          "internalType": "address",
          "name": "owner",
          "type": "address"
        },
        {
          "internalType": "string",
          "name": "metadataURI",
          "type": "string"
        },
        {
          "internalType": "uint256",
          "name": "createdAt",
          "type": "uint256"
        },
        {
          "internalType": "string",
          "name": "agentName",
          "type": "string"
        }
      ],
      "stateMutability": "view",
      "type": "function"
    },
    {
      "inputs": [
        {
          "internalType": "address",
          "name": "owner",
          "type": "address"
        }
      ],
      "name": "getAgentByOwner",
      "outputs": [
        {
          "components": [
            {
              "internalType": "address",
              "name": "owner",
              "type": "address"
            },
            {
              "internalType": "string",
              "name": "metadataURI",
              "type": "string"
            },
            {
              "internalType": "uint256",
              "name": "createdAt",
              "type": "uint256"
            },
            {
              "internalType": "string",
              "name": "agentName",
              "type": "string"
            }
          ],
          "internalType": "struct MantlicAgentNFT.Agent",
          "name": "",
          "type": "tuple"
        }
      ],
      "stateMutability": "view",
      "type": "function"
    },
    {
      "inputs": [
        {
          "internalType": "string",
          "name": "agentName",
          "type": "string"
        },
        {
          "internalType": "string",
          "name": "metadataURI",
          "type": "string"
        }
      ],
      "name": "mintAgent",
      "outputs": [
        {
          "internalType": "uint256",
          "name": "",
          "type": "uint256"
        }
      ],
      "stateMutability": "nonpayable",
      "type": "function"
    },
    {
      "inputs": [],
      "name": "name",
      "outputs": [
        {
          "internalType": "string",
          "name": "",
          "type": "string"
        }
      ],
      "stateMutability": "view",
      "type": "function"
    },
    {
      "inputs": [
        {
          "internalType": "address",
          "name": "",
          "type": "address"
        }
      ],
      "name": "ownerToAgent",
      "outputs": [
        {
          "internalType": "uint256",
          "name": "",
          "type": "uint256"
        }
      ],
      "stateMutability": "view",
      "type": "function"
    },
    {
      "inputs": [],
      "name": "symbol",
      "outputs": [
        {
          "internalType": "string",
          "name": "",
          "type": "string"
        }
      ],
      "stateMutability": "view",
      "type": "function"
    },
    {
      "inputs": [
        {
          "internalType": "uint256",
          "name": "tokenId",
          "type": "uint256"
        }
      ],
      "name": "tokenURI",
      "outputs": [
        {
          "internalType": "string",
          "name": "",
          "type": "string"
        }
      ],
      "stateMutability": "view",
      "type": "function"
    },
    {
      "inputs": [],
      "name": "totalAgents",
      "outputs": [
        {
          "internalType": "uint256",
          "name": "",
          "type": "uint256"
        }
      ],
      "stateMutability": "view",
      "type": "function"
    }
  ],
  "bytecode": "0x608060405234801561001057600080fd5b50610ae3806100206000396000f3fe608060405234801561001057600080fd5b50600436106100885760003560e01c806395d89b411161005b57806395d89b4114610133578063c505371214610155578063c87b56dd1461015d578063fc7521d91461017057600080fd5b80630381ee791461008d57806306fdde03146100b65780634ccffd50146100ef578063513856c814610110575b600080fd5b6100a061009b3660046106ef565b610190565b6040516100ad9190610765565b60405180910390f35b6100e26040518060400160405280600d81526020016c13585b9d1b1a58c81059d95b9d609a1b81525081565b6040516100ad91906107c3565b6101026100fd366004610879565b610380565b6040519081526020016100ad565b61012361011e3660046108dd565b6104b9565b6040516100ad94939291906108f6565b6100e26040518060400160405280600381526020016226a0a760e91b81525081565b600054610102565b6100e261016b3660046108dd565b6105fd565b61010261017e3660046106ef565b60026020526000908152604090205481565b6101c4604051806080016040528060006001600160a01b031681526020016060815260200160008152602001606081525090565b6001600160a01b038216600090815260026020526040902054806102205760405162461bcd60e51b815260206004820152600e60248201526d139bc81859d95b9d08199bdd5b9960921b60448201526064015b60405180910390fd5b60008181526001602081815260409283902083516080810190945280546001600160a01b0316845291820180549184019161025a9061093d565b80601f01602080910402602001604051908101604052809291908181526020018280546102869061093d565b80156102d35780601f106102a8576101008083540402835291602001916102d3565b820191906000526020600020905b8154815290600101906020018083116102b657829003601f168201915b50505050508152602001600282015481526020016003820180546102f69061093d565b80601f01602080910402602001604051908101604052809291908181526020018280546103229061093d565b801561036f5780601f106103445761010080835404028352916020019161036f565b820191906000526020600020905b81548152906001019060200180831161035257829003601f168201915b505050505081525050915050919050565b33600090815260026020526040812054156103ce5760405162461bcd60e51b815260206004820152600e60248201526d105b1c9958591e481b5a5b9d195960921b6044820152606401610217565b6000805490806103dd83610977565b90915550506000805460408051608081018252338152602080820187815242838501526060830189905284865260019182905292909420815181546001600160a01b0319166001600160a01b039091161781559151929390929082019061044490826109ed565b50604082015160028201556060820151600382019061046390826109ed565b50503360008181526002602052604090819020849055518392507f4d77f1c1090b0d1a5f71862a2bd913babdeb6321f9e743189ed3d423341fc8e4906104aa9088906107c3565b60405180910390a39392505050565b6001602081905260009182526040909120805491810180546001600160a01b03909316926104e69061093d565b80601f01602080910402602001604051908101604052809291908181526020018280546105129061093d565b801561055f5780601f106105345761010080835404028352916020019161055f565b820191906000526020600020905b81548152906001019060200180831161054257829003601f168201915b50505050509080600201549080600301805461057a9061093d565b80601f01602080910402602001604051908101604052809291908181526020018280546105a69061093d565b80156105f35780601f106105c8576101008083540402835291602001916105f3565b820191906000526020600020905b8154815290600101906020018083116105d657829003601f168201915b5050505050905084565b606060008211801561061157506000548211155b61064d5760405162461bcd60e51b815260206004820152600d60248201526c24b73b30b634b2103a37b5b2b760991b6044820152606401610217565b600082815260016020819052604090912001805461066a9061093d565b80601f01602080910402602001604051908101604052809291908181526020018280546106969061093d565b80156106e35780601f106106b8576101008083540402835291602001916106e3565b820191906000526020600020905b8154815290600101906020018083116106c657829003601f168201915b50505050509050919050565b60006020828403121561070157600080fd5b81356001600160a01b038116811461071857600080fd5b9392505050565b6000815180845260005b8181101561074557602081850181015186830182015201610729565b506000602082860101526020601f19601f83011685010191505092915050565b602080825282516001600160a01b0316828201528201516080604083015260009061079360a084018261071f565b9050604084015160608401526060840151601f198483030160808501526107ba828261071f565b95945050505050565b602081526000610718602083018461071f565b634e487b7160e01b600052604160045260246000fd5b600082601f8301126107fd57600080fd5b813567ffffffffffffffff80821115610818576108186107d6565b604051601f8301601f19908116603f01168101908282118183101715610840576108406107d6565b8160405283815286602085880101111561085957600080fd5b836020870160208301376000602085830101528094505050505092915050565b6000806040838503121561088c57600080fd5b823567ffffffffffffffff808211156108a457600080fd5b6108b0868387016107ec565b935060208501359150808211156108c657600080fd5b506108d3858286016107ec565b9150509250929050565b6000602082840312156108ef57600080fd5b5035919050565b6001600160a01b038516815260806020820181905260009061091a9083018661071f565b8460408401528281036060840152610932818561071f565b979650505050505050565b600181811c9082168061095157607f821691505b60208210810361097157634e487b7160e01b600052602260045260246000fd5b50919050565b60006001820161099757634e487b7160e01b600052601160045260246000fd5b5060010190565b601f8211156109e857600081815260208120601f850160051c810160208610156109c55750805b601f850160051c820191505b818110156109e4578281556001016109d1565b5050505b505050565b815167ffffffffffffffff811115610a0757610a076107d6565b610a1b81610a15845461093d565b8461099e565b602080601f831160018114610a505760008415610a385750858301515b600019600386901b1c1916600185901b1785556109e4565b600085815260208120601f198616915b82811015610a7f57888601518255948401946001909101908401610a60565b5085821015610a9d5787850151600019600388901b60f8161c191681555b5050505050600190811b0190555056fea26469706673582212208552765b5e72197b37e0775389d575c6d5161b728e3311c16af171c8fcb5f08864736f6c63430008140033",
  "linkReferences": {},
  "deployedLinkReferences": {}
}