{
  "_format": "hh-sol-artifact-1",
  "contractName": "MantlicSwap",
  "sourceName": "contracts/MantlicSwap.sol",
  "abi": [
    {
      "inputs": [
        {
          "internalType": "address",
          "name": "_feeRecipient",
          "type": "address"
        },
        {
          "internalType": "uint256",
          "name": "_feeBps",
          "type": "uint256"
        }
      ],
      "stateMutability": "nonpayable",
      "type": "constructor"
    },
    {
      "anonymous": false,
      "inputs": [
        {
          "indexed": true,
          "internalType": "address",
          "name": "executor",
          "type": "address"
        },
        {
          "indexed": false,
          "internalType": "bool",
          "name": "authorized",
          "type": "bool"
        }
      ],
      "name": "ExecutorAuthorized",
      "type": "event"
    },
    {
      "anonymous": false,
      "inputs": [
        {
          "indexed": false,
          "internalType": "uint256",
          "name": "oldFee",
          "type": "uint256"
        },
        {
          "indexed": false,
          "internalType": "uint256",
          "name": "newFee",
          "type": "uint256"
        }
      ],
      "name": "FeeUpdated",
      "type": "event"
    },
    {
      "anonymous": false,
      "inputs": [
        {
          "indexed": true,
          "internalType": "address",
          "name": "previousOwner",
          "type": "address"
        },
        {
          "indexed": true,
          "internalType": "address",
          "name": "newOwner",
          "type": "address"
        }
      ],
      "name": "OwnershipTransferred",
      "type": "event"
    },
    {
      "anonymous": false,
      "inputs": [
        {
          "indexed": true,
          "internalType": "address",
          "name": "token",
          "type": "address"
        },
        {
          "indexed": false,
          "internalType": "uint256",
          "name": "price",
          "type": "uint256"
        }
      ],
      "name": "PriceUpdated",
      "type": "event"
    },
    {
      "anonymous": false,
      "inputs": [
        {
          "indexed": true,
          "internalType": "address",
          "name": "agentId",
          "type": "address"
        },
        {
          "indexed": true,
          "internalType": "address",
          "name": "user",
          "type": "address"
        },
        {
          "indexed": false,
          "internalType": "address",
          "name": "tokenIn",
          "type": "address"
        },
        {
          "indexed": false,
          "internalType": "address",
          "name": "tokenOut",
          "type": "address"
        },
        {
          "indexed": false,
          "internalType": "uint256",
          "name": "amountIn",
          "type": "uint256"
        },
        {
          "indexed": false,
          "internalType": "uint256",
          "name": "amountOut",
          "type": "uint256"
        },
        {
          "indexed": false,
          "internalType": "uint256",
          "name": "gasUsed",
          "type": "uint256"
        }
      ],
      "name": "SwapExecuted",
      "type": "event"
    },
    {
      "anonymous": false,
      "inputs": [
        {
          "indexed": true,
          "internalType": "address",
          "name": "agentId",
          "type": "address"
        },
        {
          "indexed": true,
          "internalType": "address",
          "name": "user",
          "type": "address"
        },
        {
          "indexed": false,
          "internalType": "address",
          "name": "tokenIn",
          "type": "address"
        },
        {
          "indexed": false,
          "internalType": "address",
          "name": "tokenOut",
          "type": "address"
        },
        {
          "indexed": false,
          "internalType": "uint256",
          "name": "amountIn",
          "type": "uint256"
        },
        {
          "indexed": false,
          "internalType": "string",
          "name": "reason",
          "type": "string"
        }
      ],
      "name": "SwapFailed",
      "type": "event"
    },
    {
      "anonymous": false,
      "inputs": [
        {
          "indexed": true,
          "internalType": "address",
          "name": "token",
          "type": "address"
        },
        {
          "indexed": false,
          "internalType": "bool",
          "name": "supported",
          "type": "bool"
        }
      ],
      "name": "TokenSupported",
      "type": "event"
    },
    {
      "inputs": [
        {
          "internalType": "address",
          "name": "tokenOut",
          "type": "address"
        },
        {
          "internalType": "uint256",
          "name": "expectedOut",
          "type": "uint256"
        }
      ],
      "name": "_executeInternal",
      "outputs": [
        {
          "internalType": "uint256",
          "name": "",
          "type": "uint256"
        }
      ],
      "stateMutability": "nonpayable",
      "type": "function"
    },
    {
      "inputs": [
        {
          "internalType": "address",
          "name": "",
          "type": "address"
        }
      ],
      "name": "authorizedExecutors",
      "outputs": [
        {
          "internalType": "bool",
          "name": "",
          "type": "bool"
        }
      ],
      "stateMutability": "view",
      "type": "function"
    },
    {
      "inputs": [
        {
          "internalType": "address",
          "name": "tokenIn",
          "type": "address"
        },
        {
          "internalType": "address",
          "name": "tokenOut",
          "type": "address"
        },
        {
          "internalType": "uint256",
          "name": "amountIn",
          "type": "uint256"
        },
        {
          "internalType": "uint256",
          "name": "minAmountOut",
          "type": "uint256"
        },
        {
          "internalType": "bytes",
          "name": "data",
          "type": "bytes"
        }
      ],
      "name": "executeSwap",
      "outputs": [
        {
          "internalType": "uint256",
          "name": "amountOut",
          "type": "uint256"
        }
      ],
      "stateMutability": "payable",
      "type": "function"
    },
    {
      "inputs": [
        {
          "components": [
            {
              "internalType": "address",
              "name": "agentId",
              "type": "address"
            },
            {
              "internalType": "address",
              "name": "user",
              "type": "address"
            },
            {
              "internalType": "address",
              "name": "tokenIn",
              "type": "address"
            },
            {
              "internalType": "address",
              "name": "tokenOut",
              "type": "address"
            },
            {
              "internalType": "uint256",
              "name": "amountIn",
              "type": "uint256"
            },
            {
              "internalType": "uint256",
              "name": "minAmountOut",
              "type": "uint256"
            },
            {
              "internalType": "uint256",
              "name": "maxGas",
              "type": "uint256"
            },
            {
              "internalType": "uint256",
              "name": "deadline",
              "type": "uint256"
            },
            {
              "internalType": "bytes",
              "name": "path",
              "type": "bytes"
            }
          ],
          "internalType": "struct SwapRequest",
          "name": "request",
          "type": "tuple"
        }
      ],
      "name": "executeSwapWithAgent",
      "outputs": [
        {
          "components": [
            {
              "internalType": "bool",
              "name": "success",
              "type": "bool"
            },
            {
              "internalType": "uint256",
              "name": "amountOut",
              "type": "uint256"
            },
            {
              "internalType": "uint256",
              "name": "gasUsed",
              "type": "uint256"
            },
            {
              "internalType": "uint256",
              "name": "priceImpact",
              "type": "uint256"
            },
            {
              "internalType": "bytes32",
              "name": "aggregationData",
              "type": "bytes32"
            }
          ],
          "internalType": "struct SwapResult",
          "name": "result",
          "type": "tuple"
        }
      ],
      "stateMutability": "payable",
      "type": "function"
    },
    {
      "inputs": [],
      "name": "feeBps",
      "outputs": [
        {
          "internalType": "uint256",
          "name": "",
          "type": "uint256"
        }
      ],
      "stateMutability": "view",
      "type": "function"
    },
    {
      "inputs": [],
      "name": "feeRecipient",
      "outputs": [
        {
          "internalType": "address",
          "name": "",
          "type": "address"
        }
      ],
      "stateMutability": "view",
      "type": "function"
    },
    {
      "inputs": [
        {
          "internalType": "address",
          "name": "tokenIn",
          "type": "address"
        },
        {
          "internalType": "address",
          "name": "tokenOut",
          "type": "address"
        },
        {
          "internalType": "uint256",
          "name": "amountIn",
          "type": "uint256"
        }
      ],
      "name": "getAmountOut",
      "outputs": [
        {
          "internalType": "uint256",
          "name": "",
          "type": "uint256"
        }
      ],
      "stateMutability": "view",
      "type": "function"
    },
    {
      "inputs": [
        {
          "internalType": "address",
          "name": "token",
          "type": "address"
        }
      ],
      "name": "getBalance",
      "outputs": [
        {
          "internalType": "uint256",
          "name": "",
          "type": "uint256"
        }
      ],
      "stateMutability": "view",
      "type": "function"
    },
    {
      "inputs": [
        {
          "internalType": "uint256",
          "name": "amount",
          "type": "uint256"
        }
      ],
      "name": "getFee",
      "outputs": [
        {
          "internalType": "uint256",
          "name": "",
          "type": "uint256"
        }
      ],
      "stateMutability": "view",
      "type": "function"
    },
    {
      "inputs": [
        {
          "internalType": "address",
          "name": "tokenIn",
          "type": "address"
        },
        {
          "internalType": "address",
          "name": "tokenOut",
          "type": "address"
        },
        {
          "internalType": "uint256",
          "name": "amountIn",
          "type": "uint256"
        },
        {
          "internalType": "uint256",
          "name": "slippageBps",
          "type": "uint256"
        }
      ],
      "name": "getQuote",
      "outputs": [
        {
          "internalType": "uint256",
          "name": "expectedOut",
          "type": "uint256"
        },
        {
          "internalType": "uint256",
          "name": "minOut",
          "type": "uint256"
        }
      ],
      "stateMutability": "view",
      "type": "function"
    },
    {
      "inputs": [
        {
          "internalType": "address",
          "name": "token",
          "type": "address"
        }
      ],
      "name": "isTokenSupported",
      "outputs": [
        {
          "internalType": "bool",
          "name": "",
          "type": "bool"
        }
      ],
      "stateMutability": "view",
      "type": "function"
    },
    {
      "inputs": [
        {
          "internalType": "address",
          "name": "",
          "type": "address"
        }
      ],
      "name": "lastPrice",
      "outputs": [
        {
          "internalType": "uint256",
          "name": "",
          "type": "uint256"
        }
      ],
      "stateMutability": "view",
      "type": "function"
    },
    {
      "inputs": [],
      "name": "owner",
      "outputs": [
        {
          "internalType": "address",
          "name": "",
          "type": "address"
        }
      ],
      "stateMutability": "view",
      "type": "function"
    },
    {
      "inputs": [],
      "name": "renounceOwnership",
      "outputs": [],
      "stateMutability": "nonpayable",
      "type": "function"
    },
    {
      "inputs": [
        {
          "internalType": "address",
          "name": "token",
          "type": "address"
        },
        {
          "internalType": "uint256",
          "name": "amount",
          "type": "uint256"
        }
      ],
      "name": "rescueTokens",
      "outputs": [],
      "stateMutability": "nonpayable",
      "type": "function"
    },
    {
      "inputs": [
        {
          "internalType": "address",
          "name": "executor",
          "type": "address"
        },
        {
          "internalType": "bool",
          "name": "authorized",
          "type": "bool"
        }
      ],
      "name": "setExecutor",
      "outputs": [],
      "stateMutability": "nonpayable",
      "type": "function"
    },
    {
      "inputs": [
        {
          "internalType": "uint256",
          "name": "newFeeBps",
          "type": "uint256"
        }
      ],
      "name": "setFee",
      "outputs": [],
      "stateMutability": "nonpayable",
      "type": "function"
    },
    {
      "inputs": [
        {
          "internalType": "address",
          "name": "newRecipient",
          "type": "address"
        }
      ],
      "name": "setFeeRecipient",
      "outputs": [],
      "stateMutability": "nonpayable",
      "type": "function"
    },
    {
      "inputs": [
        {
          "internalType": "address",
          "name": "token",
          "type": "address"
        },
        {
          "internalType": "bool",
          "name": "supported",
          "type": "bool"
        }
      ],
      "name": "setSupportedToken",
      "outputs": [],
      "stateMutability": "nonpayable",
      "type": "function"
    },
    {
      "inputs": [
        {
          "internalType": "address",
          "name": "",
          "type": "address"
        }
      ],
      "name": "supportedTokens",
      "outputs": [
        {
          "internalType": "bool",
          "name": "",
          "type": "bool"
        }
      ],
      "stateMutability": "view",
      "type": "function"
    },
    {
      "inputs": [
        {
          "internalType": "address",
          "name": "newOwner",
          "type": "address"
        }
      ],
      "name": "transferOwnership",
      "outputs": [],
      "stateMutability": "nonpayable",
      "type": "function"
    },
    {
      "inputs": [
        {
          "internalType": "address",
          "name": "token",
          "type": "address"
        },
        {
          "internalType": "uint256",
          "name": "price",
          "type": "uint256"
        }
      ],
      "name": "updatePrice",
      "outputs": [],
      "stateMutability": "nonpayable",
      "type": "function"
    }
  ],
  "bytecode": "0x60806040523480156200001157600080fd5b5060405162001c6438038062001c6483398101604081905262000034916200011b565b60016000556200004433620000c9565b6001600160a01b0382166200009f5760405162461bcd60e51b815260206004820152601560248201527f496e76616c69642066656520726563697069656e740000000000000000000000604482015260640160405180910390fd5b600280546001600160a01b0319166001600160a01b03939093169290921790915560035562000157565b600180546001600160a01b038381166001600160a01b0319831681179093556040519116919082907f8be0079c531659141344cd1fd0a4f28419497f9722a3daafe3b4186f6b6457e090600090a35050565b600080604083850312156200012f57600080fd5b82516001600160a01b03811681146200014757600080fd5b6020939093015192949293505050565b611afd80620001676000396000f3fe6080604052600436106101355760003560e01c8063715018a6116100ab578063ea7b3db81161006f578063ea7b3db8146103c3578063f2fde38b146103e3578063f5a6ba2e14610403578063f862701f14610430578063f8b2cb4f14610465578063fcee45f41461048557600080fd5b8063715018a61461031757806375151b631461032c5780638da5cb5b14610365578063e74b981b14610383578063e7986466146103a357600080fd5b806346904840116100fd578063469048401461020f5780634aa06652146102475780635737619814610267578063679d86a71461028757806368c4ac26146102c757806369fe0e2d146102f757600080fd5b80631e1bff3f1461013a578063232174c01461015c57806324a9d853146101825780633cd3689714610198578063457972de146101ef575b600080fd5b34801561014657600080fd5b5061015a6101553660046116a0565b6104a5565b005b61016f61016a3660046116d7565b61050d565b6040519081526020015b60405180910390f35b34801561018e57600080fd5b5061016f60035481565b6101ab6101a636600461177d565b61082e565b6040516101799190600060a0820190508251151582526020830151602083015260408301516040830152606083015160608301526080830151608083015292915050565b3480156101fb57600080fd5b5061015a61020a3660046117c0565b610d2f565b34801561021b57600080fd5b5060025461022f906001600160a01b031681565b6040516001600160a01b039091168152602001610179565b34801561025357600080fd5b5061016f6102623660046117ea565b610dc4565b34801561027357600080fd5b5061015a6102823660046117c0565b610dd9565b34801561029357600080fd5b506102b76102a2366004611826565b60046020526000908152604090205460ff1681565b6040519015158152602001610179565b3480156102d357600080fd5b506102b76102e2366004611826565b60056020526000908152604090205460ff1681565b34801561030357600080fd5b5061015a610312366004611841565b610e58565b34801561032357600080fd5b5061015a610ee6565b34801561033857600080fd5b506102b7610347366004611826565b6001600160a01b031660009081526005602052604090205460ff1690565b34801561037157600080fd5b506001546001600160a01b031661022f565b34801561038f57600080fd5b5061015a61039e366004611826565b610efa565b3480156103af57600080fd5b5061015a6103be3660046116a0565b610f6e565b3480156103cf57600080fd5b5061016f6103de3660046117c0565b610fce565b3480156103ef57600080fd5b5061015a6103fe366004611826565b61102e565b34801561040f57600080fd5b5061016f61041e366004611826565b60066020526000908152604090205481565b34801561043c57600080fd5b5061045061044b36600461185a565b6110a7565b60408051928352602083019190915201610179565b34801561047157600080fd5b5061016f610480366004611826565b6110e3565b34801561049157600080fd5b5061016f6104a0366004611841565b611162565b6104ad61117f565b6001600160a01b038216600081815260046020908152604091829020805460ff191685151590811790915591519182527f61e59429ef81596566b5f5d75085a25d4043be4dd2ba28cc98d8677718e6d0c391015b60405180910390a25050565b60006105176111d9565b600085116105665760405162461bcd60e51b8152602060048201526017602482015276416d6f756e74206d75737420626520706f73697469766560481b60448201526064015b60405180910390fd5b856001600160a01b0316876001600160a01b0316036105b45760405162461bcd60e51b815260206004820152600a60248201526929b0b6b2903a37b5b2b760b11b604482015260640161055d565b60006105c1888888611232565b9050848110156106075760405162461bcd60e51b815260206004820152601160248201527014db1a5c1c1859d948195e18d959591959607a1b604482015260640161055d565b6001600160a01b0388166106a2578534101561065d5760405162461bcd60e51b8152602060048201526015602482015274125b9cdd59999a58da595b9d08135395081cd95b9d605a1b604482015260640161055d565b8534111561069d57336108fc61067388346118b2565b6040518115909202916000818181858888f1935050505015801561069b573d6000803e3d6000fd5b505b6106b7565b6106b76001600160a01b0389163330896112c7565b6001600160a01b0387166106f857604051339082156108fc029083906000818181858888f193505050501580156106f2573d6000803e3d6000fd5b5061070c565b61070c6001600160a01b0388163383611338565b60006127106003548361071f91906118c5565b61072991906118dc565b90508015610799576001600160a01b03881661077f576002546040516001600160a01b039091169082156108fc029083906000818181858888f19350505050158015610779573d6000803e3d6000fd5b50610799565b600254610799906001600160a01b038a8116911683611338565b6107a4888884611368565b3360007f48622207111e60c470744a6f806ceaa4ba7cf81a041ea2acd4ebd9dbde26efec8b8b8b6107d587896118b2565b5a604080516001600160a01b039687168152959094166020860152928401919091526060830152608082015260a00160405180910390a361081681836118b2565b925050506108246001600055565b9695505050505050565b6040805160a0810182526000808252602082018190529181018290526060810182905260808101919091526108616111d9565b60008260800135116108af5760405162461bcd60e51b8152602060048201526017602482015276416d6f756e74206d75737420626520706f73697469766560481b604482015260640161055d565b428260e0013510156108f55760405162461bcd60e51b815260206004820152600f60248201526e111958591b1a5b99481c185cdcd959608a1b604482015260640161055d565b336109066040840160208501611826565b6001600160a01b0316148061092a57503360009081526004602052604090205460ff165b6109675760405162461bcd60e51b815260206004820152600e60248201526d139bdd08185d5d1a1bdc9a5e995960921b604482015260640161055d565b600061099661097c6060850160408601611826565b61098c6080860160608701611826565b8560800135611232565b90508260a001358110156109e05760405162461bcd60e51b815260206004820152601160248201527014db1a5c1c1859d948195e18d959591959607a1b604482015260640161055d565b60006109f26060850160408601611826565b6001600160a01b031603610a4c578260800135341015610a475760405162461bcd60e51b815260206004820152601060248201526f125b9cdd59999a58da595b9d0813539560821b604482015260640161055d565b610a86565b610a86610a5f6040850160208601611826565b306080860135610a756060880160408901611826565b6001600160a01b03169291906112c7565b60005a90503063ea7b3db8610aa16080870160608801611826565b6040516001600160e01b031960e084901b1681526001600160a01b039091166004820152602481018590526044016020604051808303816000875af1925050508015610b0a575060408051601f3d908101601f19168201909252610b07918101906118fe565b60015b610c2357610b16611917565b806308c379a003610c175750610b2a61196e565b80610b355750610c19565b6040805160a081018252600080825260208201529081015a610b5790856118b2565b8152602001600081526020016000801b8152509350846020016020810190610b7f9190611826565b6001600160a01b0316610b956020870187611826565b6001600160a01b03167ff5cac3030ff6a7a857d94ba6cae8ed4c29271c124aa6507f815c296701af0fe3610bcf6060890160408a01611826565b610bdf60808a0160608b01611826565b896080013586604051610bf59493929190611a48565b60405180910390a38060405162461bcd60e51b815260040161055d9190611a7b565b505b3d6000803e3d6000fd5b6040518060a001604052806001151581526020018281526020015a610c4890856118b2565b8152602001610c5b8760800135846113e6565b81526000602090910152935050610c786040850160208601611826565b6001600160a01b0316610c8e6020860186611826565b6001600160a01b03167f48622207111e60c470744a6f806ceaa4ba7cf81a041ea2acd4ebd9dbde26efec610cc86060880160408901611826565b610cd86080890160608a01611826565b6020808901516040808b015181516001600160a01b03968716815295909416928501929092526080808c013592850192909252606084015282015260a00160405180910390a35050610d2a6001600055565b919050565b610d3761117f565b60008111610d775760405162461bcd60e51b815260206004820152600d60248201526c496e76616c696420707269636560981b604482015260640161055d565b6001600160a01b03821660008181526006602052604090819020839055517f0d86730737b142fc160892fa8a0f2db687a92a0e294d1ad70624cf5acef03b84906105019084815260200190565b6000610dd1848484611232565b949350505050565b610de161117f565b6001600160a01b038216610e2e576001546040516001600160a01b039091169082156108fc029083906000818181858888f19350505050158015610e29573d6000803e3d6000fd5b505050565b610e54610e436001546001600160a01b031690565b6001600160a01b0384169083611338565b5050565b610e6061117f565b6103e8811115610ea15760405162461bcd60e51b815260206004820152600c60248201526b08ccaca40e8dede40d0d2ced60a31b604482015260640161055d565b600380549082905560408051828152602081018490527f528d9479e9f9889a87a3c30c7f7ba537e5e59c4c85a37733b16e57c62df61302910160405180910390a15050565b610eee61117f565b610ef86000611444565b565b610f0261117f565b6001600160a01b038116610f4c5760405162461bcd60e51b8152602060048201526011602482015270125b9d985b1a59081c9958da5c1a595b9d607a1b604482015260640161055d565b600280546001600160a01b0319166001600160a01b0392909216919091179055565b610f7661117f565b6001600160a01b038216600081815260056020908152604091829020805460ff191685151590811790915591519182527fd86c88b4a367d9b81a6e00c9d3f7d01657bffef358fa8968c91c045ae99f0d529101610501565b60006001600160a01b03831661101157604051339083156108fc029084906000818181858888f1935050505015801561100b573d6000803e3d6000fd5b50611025565b6110256001600160a01b0384163384611338565b50805b92915050565b61103661117f565b6001600160a01b03811661109b5760405162461bcd60e51b815260206004820152602660248201527f4f776e61626c653a206e6577206f776e657220697320746865207a65726f206160448201526564647265737360d01b606482015260840161055d565b6110a481611444565b50565b6000806110b5868686611232565b91506127106110c484826118b2565b6110ce90846118c5565b6110d891906118dc565b905094509492505050565b60006001600160a01b0382166110fa575047919050565b6040516370a0823160e01b81523060048201526001600160a01b038316906370a0823190602401602060405180830381865afa15801561113e573d6000803e3d6000fd5b505050506040513d601f19601f8201168201806040525081019061102891906118fe565b60006127106003548361117591906118c5565b61102891906118dc565b6001546001600160a01b03163314610ef85760405162461bcd60e51b815260206004820181905260248201527f4f776e61626c653a2063616c6c6572206973206e6f7420746865206f776e6572604482015260640161055d565b60026000540361122b5760405162461bcd60e51b815260206004820152601f60248201527f5265656e7472616e637947756172643a207265656e7472616e742063616c6c00604482015260640161055d565b6002600055565b6001600160a01b0380841660009081526006602052604080822054928516825281205490919081830361126b57670de0b6b3a764000091505b8060000361127e5750670de0b6b3a76400005b6000670de0b6b3a764000061129384876118c5565b61129d91906118dc565b9050816112b282670de0b6b3a76400006118c5565b6112bc91906118dc565b979650505050505050565b6040516001600160a01b03808516602483015283166044820152606481018290526113329085906323b872dd60e01b906084015b60408051601f198184030181529190526020810180516001600160e01b03166001600160e01b031990931692909217909152611496565b50505050565b6040516001600160a01b038316602482015260448101829052610e2990849063a9059cbb60e01b906064016112fb565b8015610e29578061138183670de0b6b3a76400006118c5565b61138b91906118dc565b6001600160a01b038416600081815260066020526040908190208390555190917f0d86730737b142fc160892fa8a0f2db687a92a0e294d1ad70624cf5acef03b84916113d991815260200190565b60405180910390a2505050565b60008215806113f3575081155b1561140057506000611028565b60008261140f856127106118c5565b61141991906118dc565b9050612710808211156114395761143081836118b2565b92505050611028565b506000949350505050565b600180546001600160a01b038381166001600160a01b0319831681179093556040519116919082907f8be0079c531659141344cd1fd0a4f28419497f9722a3daafe3b4186f6b6457e090600090a35050565b60006114eb826040518060400160405280602081526020017f5361666545524332303a206c6f772d6c6576656c2063616c6c206661696c6564815250856001600160a01b03166115689092919063ffffffff16565b805190915015610e2957808060200190518101906115099190611a8e565b610e295760405162461bcd60e51b815260206004820152602a60248201527f5361666545524332303a204552433230206f7065726174696f6e20646964206e6044820152691bdd081cdd58d8d9595960b21b606482015260840161055d565b6060610dd1848460008585600080866001600160a01b0316858760405161158f9190611aab565b60006040518083038185875af1925050503d80600081146115cc576040519150601f19603f3d011682016040523d82523d6000602084013e6115d1565b606091505b50915091506112bc878383876060831561164c578251600003611645576001600160a01b0385163b6116455760405162461bcd60e51b815260206004820152601d60248201527f416464726573733a2063616c6c20746f206e6f6e2d636f6e7472616374000000604482015260640161055d565b5081610dd1565b610dd183838151156116615781518083602001fd5b8060405162461bcd60e51b815260040161055d9190611a7b565b80356001600160a01b0381168114610d2a57600080fd5b80151581146110a457600080fd5b600080604083850312156116b357600080fd5b6116bc8361167b565b915060208301356116cc81611692565b809150509250929050565b60008060008060008060a087890312156116f057600080fd5b6116f98761167b565b95506117076020880161167b565b94506040870135935060608701359250608087013567ffffffffffffffff8082111561173257600080fd5b818901915089601f83011261174657600080fd5b81358181111561175557600080fd5b8a602082850101111561176757600080fd5b6020830194508093505050509295509295509295565b60006020828403121561178f57600080fd5b813567ffffffffffffffff8111156117a657600080fd5b820161012081850312156117b957600080fd5b9392505050565b600080604083850312156117d357600080fd5b6117dc8361167b565b946020939093013593505050565b6000806000606084860312156117ff57600080fd5b6118088461167b565b92506118166020850161167b565b9150604084013590509250925092565b60006020828403121561183857600080fd5b6117b98261167b565b60006020828403121561185357600080fd5b5035919050565b6000806000806080858703121561187057600080fd5b6118798561167b565b93506118876020860161167b565b93969395505050506040820135916060013590565b634e487b7160e01b600052601160045260246000fd5b818103818111156110285761102861189c565b80820281158282048414176110285761102861189c565b6000826118f957634e487b7160e01b600052601260045260246000fd5b500490565b60006020828403121561191057600080fd5b5051919050565b600060033d11156119305760046000803e5060005160e01c5b90565b601f8201601f1916810167ffffffffffffffff8111828210171561196757634e487b7160e01b600052604160045260246000fd5b6040525050565b600060443d101561197c5790565b6040516003193d81016004833e81513d67ffffffffffffffff81602484011181841117156119ac57505050505090565b82850191508151818111156119c45750505050505090565b843d87010160208285010111156119de5750505050505090565b6119ed60208286010187611933565b509095945050505050565b60005b83811015611a135781810151838201526020016119fb565b50506000910152565b60008151808452611a348160208601602086016119f8565b601f01601f19169290920160200192915050565b6001600160a01b038581168252841660208201526040810183905260806060820181905260009061082490830184611a1c565b6020815260006117b96020830184611a1c565b600060208284031215611aa057600080fd5b81516117b981611692565b60008251611abd8184602087016119f8565b919091019291505056fea26469706673582212209b08822e7c34fae97f1348cc4922f8839fb05b87307766d45c3a028f923039fe64736f6c63430008140033",
  "linkReferences": {},
  "deployedLinkReferences": {}
}