{
  "_format": "hh-sol-artifact-1",
  "contractName": "MantlicSwap",
  "sourceName": "contracts/MantlicSwap.sol",
  "abi": [
    {
      "inputs": [
        {
          "internalType": "address",
          "name": "_feeRecipient",
          "type": "address"
        },
        {
          "internalType": "uint256",
          "name": "_feeBps",
          "type": "uint256"
        }
      ],
      "stateMutability": "nonpayable",
      "type": "constructor"
    },
    {
      "anonymous": false,
      "inputs": [
        {
          "indexed": true,
          "internalType": "address",
          "name": "executor",
          "type": "address"
        },
        {
          "indexed": false,
          "internalType": "bool",
          "name": "authorized",
          "type": "bool"
        }
      ],
      "name": "ExecutorAuthorized",
      "type": "event"
    },
    {
      "anonymous": false,
      "inputs": [
        {
          "indexed": false,
          "internalType": "uint256",
          "name": "oldFee",
          "type": "uint256"
        },
        {
          "indexed": false,
          "internalType": "uint256",
          "name": "newFee",
          "type": "uint256"
        }
      ],
      "name": "FeeUpdated",
      "type": "event"
    },
    {
      "anonymous": false,
      "inputs": [
        {
          "indexed": true,
          "internalType": "address",
          "name": "previousOwner",
          "type": "address"
        },
        {
          "indexed": true,
          "internalType": "address",
          "name": "newOwner",
          "type": "address"
        }
      ],
      "name": "OwnershipTransferred",
      "type": "event"
    },
    {
      "anonymous": false,
      "inputs": [
        {
          "indexed": true,
          "internalType": "address",
          "name": "token",
          "type": "address"
        },
        {
          "indexed": false,
          "internalType": "uint256",
          "name": "price",
          "type": "uint256"
        }
      ],
      "name": "PriceUpdated",
      "type": "event"
    },
    {
      "anonymous": false,
      "inputs": [
        {
          "indexed": true,
          "internalType": "address",
          "name": "agentId",
          "type": "address"
        },
        {
          "indexed": true,
          "internalType": "address",
          "name": "user",
          "type": "address"
        },
        {
          "indexed": false,
          "internalType": "address",
          "name": "tokenIn",
          "type": "address"
        },
        {
          "indexed": false,
          "internalType": "address",
          "name": "tokenOut",
          "type": "address"
        },
        {
          "indexed": false,
          "internalType": "uint256",
          "name": "amountIn",
          "type": "uint256"
        },
        {
          "indexed": false,
          "internalType": "uint256",
          "name": "amountOut",
          "type": "uint256"
        },
        {
          "indexed": false,
          "internalType": "uint256",
          "name": "gasUsed",
          "type": "uint256"
        }
      ],
      "name": "SwapExecuted",
      "type": "event"
    },
    {
      "anonymous": false,
      "inputs": [
        {
          "indexed": true,
          "internalType": "address",
          "name": "agentId",
          "type": "address"
        },
        {
          "indexed": true,
          "internalType": "address",
          "name": "user",
          "type": "address"
        },
        {
          "indexed": false,
          "internalType": "address",
          "name": "tokenIn",
          "type": "address"
        },
        {
          "indexed": false,
          "internalType": "address",
          "name": "tokenOut",
          "type": "address"
        },
        {
          "indexed": false,
          "internalType": "uint256",
          "name": "amountIn",
          "type": "uint256"
        },
        {
          "indexed": false,
          "internalType": "string",
          "name": "reason",
          "type": "string"
        }
      ],
      "name": "SwapFailed",
      "type": "event"
    },
    {
      "anonymous": false,
      "inputs": [
        {
          "indexed": true,
          "internalType": "address",
          "name": "token",
          "type": "address"
        },
        {
          "indexed": false,
          "internalType": "bool",
          "name": "supported",
          "type": "bool"
        }
      ],
      "name": "TokenSupported",
      "type": "event"
    },
    {
      "inputs": [
        {
          "internalType": "address",
          "name": "tokenOut",
          "type": "address"
        },
        {
          "internalType": "uint256",
          "name": "expectedOut",
          "type": "uint256"
        }
      ],
      "name": "_executeInternal",
      "outputs": [
        {
          "internalType": "uint256",
          "name": "",
          "type": "uint256"
        }
      ],
      "stateMutability": "nonpayable",
      "type": "function"
    },
    {
      "inputs": [
        {
          "internalType": "address",
          "name": "",
          "type": "address"
        }
      ],
      "name": "authorizedExecutors",
      "outputs": [
        {
          "internalType": "bool",
          "name": "",
          "type": "bool"
        }
      ],
      "stateMutability": "view",
      "type": "function"
    },
    {
      "inputs": [
        {
          "internalType": "address",
          "name": "tokenIn",
          "type": "address"
        },
        {
          "internalType": "address",
          "name": "tokenOut",
          "type": "address"
        },
        {
          "internalType": "uint256",
          "name": "amountIn",
          "type": "uint256"
        },
        {
          "internalType": "uint256",
          "name": "minAmountOut",
          "type": "uint256"
        },
        {
          "internalType": "bytes",
          "name": "data",
          "type": "bytes"
        }
      ],
      "name": "executeSwap",
      "outputs": [
        {
          "internalType": "uint256",
          "name": "amountOut",
          "type": "uint256"
        }
      ],
      "stateMutability": "payable",
      "type": "function"
    },
    {
      "inputs": [
        {
          "components": [
            {
              "internalType": "address",
              "name": "agentId",
              "type": "address"
            },
            {
              "internalType": "address",
              "name": "user",
              "type": "address"
            },
            {
              "internalType": "address",
              "name": "tokenIn",
              "type": "address"
            },
            {
              "internalType": "address",
              "name": "tokenOut",
              "type": "address"
            },
            {
              "internalType": "uint256",
              "name": "amountIn",
              "type": "uint256"
            },
            {
              "internalType": "uint256",
              "name": "minAmountOut",
              "type": "uint256"
            },
            {
              "internalType": "uint256",
              "name": "maxGas",
              "type": "uint256"
            },
            {
              "internalType": "uint256",
              "name": "deadline",
              "type": "uint256"
            },
            {
              "internalType": "bytes",
              "name": "path",
              "type": "bytes"
            }
          ],
          "internalType": "struct SwapRequest",
          "name": "request",
          "type": "tuple"
        }
      ],
      "name": "executeSwapWithAgent",
      "outputs": [
        {
          "components": [
            {
              "internalType": "bool",
              "name": "success",
              "type": "bool"
            },
            {
              "internalType": "uint256",
              "name": "amountOut",
              "type": "uint256"
            },
            {
              "internalType": "uint256",
              "name": "gasUsed",
              "type": "uint256"
            },
            {
              "internalType": "uint256",
              "name": "priceImpact",
              "type": "uint256"
            },
            {
              "internalType": "bytes32",
              "name": "aggregationData",
              "type": "bytes32"
            }
          ],
          "internalType": "struct SwapResult",
          "name": "result",
          "type": "tuple"
        }
      ],
      "stateMutability": "payable",
      "type": "function"
    },
    {
      "inputs": [],
      "name": "feeBps",
      "outputs": [
        {
          "internalType": "uint256",
          "name": "",
          "type": "uint256"
        }
      ],
      "stateMutability": "view",
      "type": "function"
    },
    {
      "inputs": [],
      "name": "feeRecipient",
      "outputs": [
        {
          "internalType": "address",
          "name": "",
          "type": "address"
        }
      ],
      "stateMutability": "view",
      "type": "function"
    },
    {
      "inputs": [
        {
          "internalType": "address",
          "name": "tokenIn",
          "type": "address"
        },
        {
          "internalType": "address",
          "name": "tokenOut",
          "type": "address"
        },
        {
          "internalType": "uint256",
          "name": "amountIn",
          "type": "uint256"
        }
      ],
      "name": "getAmountOut",
      "outputs": [
        {
          "internalType": "uint256",
          "name": "",
          "type": "uint256"
        }
      ],
      "stateMutability": "view",
      "type": "function"
    },
    {
      "inputs": [
        {
          "internalType": "address",
          "name": "token",
          "type": "address"
        }
      ],
      "name": "getBalance",
      "outputs": [
        {
          "internalType": "uint256",
          "name": "",
          "type": "uint256"
        }
      ],
      "stateMutability": "view",
      "type": "function"
    },
    {
      "inputs": [
        {
          "internalType": "uint256",
          "name": "amount",
          "type": "uint256"
        }
      ],
      "name": "getFee",
      "outputs": [
        {
          "internalType": "uint256",
          "name": "",
          "type": "uint256"
        }
      ],
      "stateMutability": "view",
      "type": "function"
    },
    {
      "inputs": [
        {
          "internalType": "address",
          "name": "tokenIn",
          "type": "address"
        },
        {
          "internalType": "address",
          "name": "tokenOut",
          "type": "address"
        },
        {
          "internalType": "uint256",
          "name": "amountIn",
          "type": "uint256"
        },
        {
          "internalType": "uint256",
          "name": "slippageBps",
          "type": "uint256"
        }
      ],
      "name": "getQuote",
      "outputs": [
        {
          "internalType": "uint256",
          "name": "expectedOut",
          "type": "uint256"
        },
        {
          "internalType": "uint256",
          "name": "minOut",
          "type": "uint256"
        }
      ],
      "stateMutability": "view",
      "type": "function"
    },
    {
      "inputs": [
        {
          "internalType": "address",
          "name": "token",
          "type": "address"
        }
      ],
      "name": "isTokenSupported",
      "outputs": [
        {
          "internalType": "bool",
          "name": "",
          "type": "bool"
        }
      ],
      "stateMutability": "view",
      "type": "function"
    },
    {
      "inputs": [
        {
          "internalType": "address",
          "name": "",
          "type": "address"
        }
      ],
      "name": "lastPrice",
      "outputs": [
        {
          "internalType": "uint256",
          "name": "",
          "type": "uint256"
        }
      ],
      "stateMutability": "view",
      "type": "function"
    },
    {
      "inputs": [],
      "name": "owner",
      "outputs": [
        {
          "internalType": "address",
          "name": "",
          "type": "address"
        }
      ],
      "stateMutability": "view",
      "type": "function"
    },
    {
      "inputs": [],
      "name": "renounceOwnership",
      "outputs": [],
      "stateMutability": "nonpayable",
      "type": "function"
    },
    {
      "inputs": [
        {
          "internalType": "address",
          "name": "token",
          "type": "address"
        },
        {
          "internalType": "uint256",
          "name": "amount",
          "type": "uint256"
        }
      ],
      "name": "rescueTokens",
      "outputs": [],
      "stateMutability": "nonpayable",
      "type": "function"
    },
    {
      "inputs": [
        {
          "internalType": "address",
          "name": "executor",
          "type": "address"
        },
        {
          "internalType": "bool",
          "name": "authorized",
          "type": "bool"
        }
      ],
      "name": "setExecutor",
      "outputs": [],
      "stateMutability": "nonpayable",
      "type": "function"
    },
    {
      "inputs": [
        {
          "internalType": "uint256",
          "name": "newFeeBps",
          "type": "uint256"
        }
      ],
      "name": "setFee",
      "outputs": [],
      "stateMutability": "nonpayable",
      "type": "function"
    },
    {
      "inputs": [
        {
          "internalType": "address",
          "name": "newRecipient",
          "type": "address"
        }
      ],
      "name": "setFeeRecipient",
      "outputs": [],
      "stateMutability": "nonpayable",
      "type": "function"
    },
    {
      "inputs": [
        {
          "internalType": "address",
          "name": "token",
          "type": "address"
        },
        {
          "internalType": "bool",
          "name": "supported",
          "type": "bool"
        }
      ],
      "name": "setSupportedToken",
      "outputs": [],
      "stateMutability": "nonpayable",
      "type": "function"
    },
    {
      "inputs": [
        {
          "internalType": "address",
          "name": "",
          "type": "address"
        }
      ],
      "name": "supportedTokens",
      "outputs": [
        {
          "internalType": "bool",
          "name": "",
          "type": "bool"
        }
      ],
      "stateMutability": "view",
      "type": "function"
    },
    {
      "inputs": [
        {
          "internalType": "address",
          "name": "newOwner",
          "type": "address"
        }
      ],
      "name": "transferOwnership",
      "outputs": [],
      "stateMutability": "nonpayable",
      "type": "function"
    },
    {
      "inputs": [
        {
          "internalType": "address",
          "name": "token",
          "type": "address"
        },
        {
          "internalType": "uint256",
          "name": "price",
          "type": "uint256"
        }
      ],
      "name": "updatePrice",
      "outputs": [],
      "stateMutability": "nonpayable",
      "type": "function"
    },
    {
      "stateMutability": "payable",
      "type": "receive"
    }
  ],
  "bytecode": "0x60806040523480156200001157600080fd5b50604051620020ef380380620020ef83398101604081905262000034916200011b565b60016000556200004433620000c9565b6001600160a01b0382166200009f5760405162461bcd60e51b815260206004820152601560248201527f496e76616c69642066656520726563697069656e740000000000000000000000604482015260640160405180910390fd5b600280546001600160a01b0319166001600160a01b03939093169290921790915560035562000157565b600180546001600160a01b038381166001600160a01b0319831681179093556040519116919082907f8be0079c531659141344cd1fd0a4f28419497f9722a3daafe3b4186f6b6457e090600090a35050565b600080604083850312156200012f57600080fd5b82516001600160a01b03811681146200014757600080fd5b6020939093015192949293505050565b611f8880620001676000396000f3fe6080604052600436106101395760003560e01c8063715018a6116100ab578063ea7b3db81161006f578063ea7b3db8146103ce578063f2fde38b146103ee578063f5a6ba2e1461040e578063f862701f1461043b578063f8b2cb4f14610470578063fcee45f41461049057600080fd5b8063715018a61461032257806375151b63146103375780638da5cb5b14610370578063e74b981b1461038e578063e7986466146103ae57600080fd5b806346904840116100fd578063469048401461021a5780634aa06652146102525780635737619814610272578063679d86a71461029257806368c4ac26146102d257806369fe0e2d1461030257600080fd5b80631e1bff3f14610145578063232174c01461016757806324a9d8531461018d5780633cd36897146101a3578063457972de146101fa57600080fd5b3661014057005b600080fd5b34801561015157600080fd5b50610165610160366004611b2b565b6104b0565b005b61017a610175366004611b62565b610518565b6040519081526020015b60405180910390f35b34801561019957600080fd5b5061017a60035481565b6101b66101b1366004611c08565b610c63565b6040516101849190600060a0820190508251151582526020830151602083015260408301516040830152606083015160608301526080830151608083015292915050565b34801561020657600080fd5b50610165610215366004611c4b565b61123d565b34801561022657600080fd5b5060025461023a906001600160a01b031681565b6040516001600160a01b039091168152602001610184565b34801561025e57600080fd5b5061017a61026d366004611c75565b6112d2565b34801561027e57600080fd5b5061016561028d366004611c4b565b6112e7565b34801561029e57600080fd5b506102c26102ad366004611cb1565b60046020526000908152604090205460ff1681565b6040519015158152602001610184565b3480156102de57600080fd5b506102c26102ed366004611cb1565b60056020526000908152604090205460ff1681565b34801561030e57600080fd5b5061016561031d366004611ccc565b611438565b34801561032e57600080fd5b506101656114c6565b34801561034357600080fd5b506102c2610352366004611cb1565b6001600160a01b031660009081526005602052604090205460ff1690565b34801561037c57600080fd5b506001546001600160a01b031661023a565b34801561039a57600080fd5b506101656103a9366004611cb1565b6114da565b3480156103ba57600080fd5b506101656103c9366004611b2b565b61154e565b3480156103da57600080fd5b5061017a6103e9366004611c4b565b6115ae565b3480156103fa57600080fd5b50610165610409366004611cb1565b61173f565b34801561041a57600080fd5b5061017a610429366004611cb1565b60066020526000908152604090205481565b34801561044757600080fd5b5061045b610456366004611ce5565b6117b8565b60408051928352602083019190915201610184565b34801561047c57600080fd5b5061017a61048b366004611cb1565b6117f4565b34801561049c57600080fd5b5061017a6104ab366004611ccc565b611873565b6104b8611890565b6001600160a01b038216600081815260046020908152604091829020805460ff191685151590811790915591519182527f61e59429ef81596566b5f5d75085a25d4043be4dd2ba28cc98d8677718e6d0c391015b60405180910390a25050565b60006105226118ea565b600085116105715760405162461bcd60e51b8152602060048201526017602482015276416d6f756e74206d75737420626520706f73697469766560481b60448201526064015b60405180910390fd5b856001600160a01b0316876001600160a01b0316036105e25760405162461bcd60e51b815260206004820152602760248201527f53616d6520746f6b656e20287573652067657451756f746520666f722073656c604482015266662d737761702960c81b6064820152608401610568565b60006105ef888888611943565b9050848110156106355760405162461bcd60e51b815260206004820152601160248201527014db1a5c1c1859d948195e18d959591959607a1b6044820152606401610568565b6001600160a01b0388161561075d576040513360248201523060448201526064810187905260009081906001600160a01b038b169060840160408051601f198184030181529181526020820180516001600160e01b03166323b872dd60e01b179052516106a29190611d4b565b6000604051808303816000865af19150503d80600081146106df576040519150601f19603f3d011682016040523d82523d6000602084013e6106e4565b606091505b509150915081801561070e57508051158061070e57508080602001905181019061070e9190611d67565b61075a5760405162461bcd60e51b815260206004820152601b60248201527f496e70757420746f6b656e207472616e73666572206661696c656400000000006044820152606401610568565b50505b6000612710600354836107709190611d9a565b61077a9190611db1565b905060006107888284611dd3565b90506001600160a01b03891661082c57604051600090339083908381818185875af1925050503d80600081146107da576040519150601f19603f3d011682016040523d82523d6000602084013e6107df565b606091505b50509050806108265760405162461bcd60e51b8152602060048201526013602482015272135395081d1c985b9cd9995c8819985a5b1959606a1b6044820152606401610568565b5061093f565b6040513360248201526044810182905260009081906001600160a01b038c169060640160408051601f198184030181529181526020820180516001600160e01b031663a9059cbb60e01b179052516108849190611d4b565b6000604051808303816000865af19150503d80600081146108c1576040519150601f19603f3d011682016040523d82523d6000602084013e6108c6565b606091505b50915091508180156108f05750805115806108f05750808060200190518101906108f09190611d67565b61093c5760405162461bcd60e51b815260206004820152601c60248201527f4f757470757420746f6b656e207472616e73666572206661696c6564000000006044820152606401610568565b50505b8115610bcd576001600160a01b038916610a44576002546040516000916001600160a01b03169084908381818185875af1925050503d80600081146109a0576040519150601f19603f3d011682016040523d82523d6000602084013e6109a5565b606091505b5050905080610a3e57604051600090339085908381818185875af1925050503d80600081146109f0576040519150601f19603f3d011682016040523d82523d6000602084013e6109f5565b606091505b5050905080610a3c5760405162461bcd60e51b8152602060048201526013602482015272119959481d1c985b9cd9995c8819985a5b1959606a1b6044820152606401610568565b505b50610bcd565b6002546040516001600160a01b039182166024820152604481018490526000918b169060640160408051601f198184030181529181526020820180516001600160e01b031663a9059cbb60e01b17905251610a9f9190611d4b565b6000604051808303816000865af19150503d8060008114610adc576040519150601f19603f3d011682016040523d82523d6000602084013e610ae1565b606091505b5050905080610bcb57604051336024820152604481018490526000906001600160a01b038c169060640160408051601f198184030181529181526020820180516001600160e01b031663a9059cbb60e01b17905251610b409190611d4b565b6000604051808303816000865af19150503d8060008114610b7d576040519150601f19603f3d011682016040523d82523d6000602084013e610b82565b606091505b5050905080610bc95760405162461bcd60e51b8152602060048201526013602482015272119959481d1c985b9cd9995c8819985a5b1959606a1b6044820152606401610568565b505b505b610bd88989856119d8565b3360007f48622207111e60c470744a6f806ceaa4ba7cf81a041ea2acd4ebd9dbde26efec8c8c8c610c09888a611dd3565b5a604080516001600160a01b039687168152959094166020860152928401919091526060830152608082015260a00160405180910390a3610c4a8284611dd3565b9350505050610c596001600055565b9695505050505050565b6040805160a081018252600080825260208201819052918101829052606081018290526080810191909152610c966118ea565b6000826080013511610ce45760405162461bcd60e51b8152602060048201526017602482015276416d6f756e74206d75737420626520706f73697469766560481b6044820152606401610568565b428260e001351015610d2a5760405162461bcd60e51b815260206004820152600f60248201526e111958591b1a5b99481c185cdcd959608a1b6044820152606401610568565b33610d3b6040840160208501611cb1565b6001600160a01b03161480610d5f57503360009081526004602052604090205460ff165b610d9c5760405162461bcd60e51b815260206004820152600e60248201526d139bdd08185d5d1a1bdc9a5e995960921b6044820152606401610568565b6000610dcb610db16060850160408601611cb1565b610dc16080860160608701611cb1565b8560800135611943565b90508260a00135811015610e155760405162461bcd60e51b815260206004820152601160248201527014db1a5c1c1859d948195e18d959591959607a1b6044820152606401610568565b6000610e276060850160408601611cb1565b6001600160a01b031603610e81578260800135341015610e7c5760405162461bcd60e51b815260206004820152601060248201526f125b9cdd59999a58da595b9d0813539560821b6044820152606401610568565b610f94565b6000610e936060850160408601611cb1565b6001600160a01b0316610eac6040860160208701611cb1565b6040516001600160a01b0390911660248201523060448201526080860135606482015260840160408051601f198184030181529181526020820180516001600160e01b03166323b872dd60e01b17905251610f079190611d4b565b6000604051808303816000865af19150503d8060008114610f44576040519150601f19603f3d011682016040523d82523d6000602084013e610f49565b606091505b5050905080610f925760405162461bcd60e51b8152602060048201526015602482015274125b9c1d5d081d1c985b9cd9995c8819985a5b1959605a1b6044820152606401610568565b505b60005a90503063ea7b3db8610faf6080870160608801611cb1565b6040516001600160e01b031960e084901b1681526001600160a01b039091166004820152602481018590526044016020604051808303816000875af1925050508015611018575060408051601f3d908101601f1916820190925261101591810190611de6565b60015b61113157611024611dff565b806308c379a0036111255750611038611e56565b806110435750611127565b6040805160a081018252600080825260208201529081015a6110659085611dd3565b8152602001600081526020016000801b815250935084602001602081019061108d9190611cb1565b6001600160a01b03166110a36020870187611cb1565b6001600160a01b03167ff5cac3030ff6a7a857d94ba6cae8ed4c29271c124aa6507f815c296701af0fe36110dd6060890160408a01611cb1565b6110ed60808a0160608b01611cb1565b8960800135866040516111039493929190611f0c565b60405180910390a38060405162461bcd60e51b81526004016105689190611f3f565b505b3d6000803e3d6000fd5b6040518060a001604052806001151581526020018281526020015a6111569085611dd3565b8152602001611169876080013584611a56565b815260006020909101529350506111866040850160208601611cb1565b6001600160a01b031661119c6020860186611cb1565b6001600160a01b03167f48622207111e60c470744a6f806ceaa4ba7cf81a041ea2acd4ebd9dbde26efec6111d66060880160408901611cb1565b6111e66080890160608a01611cb1565b6020808901516040808b015181516001600160a01b03968716815295909416928501929092526080808c013592850192909252606084015282015260a00160405180910390a350506112386001600055565b919050565b611245611890565b600081116112855760405162461bcd60e51b815260206004820152600d60248201526c496e76616c696420707269636560981b6044820152606401610568565b6001600160a01b03821660008181526006602052604090819020839055517f0d86730737b142fc160892fa8a0f2db687a92a0e294d1ad70624cf5acef03b849061050c9084815260200190565b60006112df848484611943565b949350505050565b6112ef611890565b6001600160a01b03821661133c576001546040516001600160a01b039091169082156108fc029083906000818181858888f19350505050158015611337573d6000803e3d6000fd5b505050565b6000826001600160a01b031661135a6001546001600160a01b031690565b6040516001600160a01b0390911660248201526044810184905260640160408051601f198184030181529181526020820180516001600160e01b031663a9059cbb60e01b179052516113ac9190611d4b565b6000604051808303816000865af19150503d80600081146113e9576040519150601f19603f3d011682016040523d82523d6000602084013e6113ee565b606091505b50509050806113375760405162461bcd60e51b815260206004820152601660248201527514995cd8dd59481d1c985b9cd9995c8819985a5b195960521b6044820152606401610568565b611440611890565b6103e88111156114815760405162461bcd60e51b815260206004820152600c60248201526b08ccaca40e8dede40d0d2ced60a31b6044820152606401610568565b600380549082905560408051828152602081018490527f528d9479e9f9889a87a3c30c7f7ba537e5e59c4c85a37733b16e57c62df61302910160405180910390a15050565b6114ce611890565b6114d86000611ab4565b565b6114e2611890565b6001600160a01b03811661152c5760405162461bcd60e51b8152602060048201526011602482015270125b9d985b1a59081c9958da5c1a595b9d607a1b6044820152606401610568565b600280546001600160a01b0319166001600160a01b0392909216919091179055565b611556611890565b6001600160a01b038216600081815260056020908152604091829020805460ff191685151590811790915591519182527fd86c88b4a367d9b81a6e00c9d3f7d01657bffef358fa8968c91c045ae99f0d52910161050c565b60006001600160a01b03831661165257604051600090339084908381818185875af1925050503d8060008114611600576040519150601f19603f3d011682016040523d82523d6000602084013e611605565b606091505b505090508061164c5760405162461bcd60e51b8152602060048201526013602482015272135395081d1c985b9cd9995c8819985a5b1959606a1b6044820152606401610568565b50611736565b604051336024820152604481018390526000906001600160a01b0385169060640160408051601f198184030181529181526020820180516001600160e01b031663a9059cbb60e01b179052516116a89190611d4b565b6000604051808303816000865af19150503d80600081146116e5576040519150601f19603f3d011682016040523d82523d6000602084013e6116ea565b606091505b50509050806117345760405162461bcd60e51b815260206004820152601660248201527513dd5d1c1d5d081d1c985b9cd9995c8819985a5b195960521b6044820152606401610568565b505b50805b92915050565b611747611890565b6001600160a01b0381166117ac5760405162461bcd60e51b815260206004820152602660248201527f4f776e61626c653a206e6577206f776e657220697320746865207a65726f206160448201526564647265737360d01b6064820152608401610568565b6117b581611ab4565b50565b6000806117c6868686611943565b91506127106117d58482611dd3565b6117df9084611d9a565b6117e99190611db1565b905094509492505050565b60006001600160a01b03821661180b575047919050565b6040516370a0823160e01b81523060048201526001600160a01b038316906370a0823190602401602060405180830381865afa15801561184f573d6000803e3d6000fd5b505050506040513d601f19601f820116820180604052508101906117399190611de6565b6000612710600354836118869190611d9a565b6117399190611db1565b6001546001600160a01b031633146114d85760405162461bcd60e51b815260206004820181905260248201527f4f776e61626c653a2063616c6c6572206973206e6f7420746865206f776e65726044820152606401610568565b60026000540361193c5760405162461bcd60e51b815260206004820152601f60248201527f5265656e7472616e637947756172643a207265656e7472616e742063616c6c006044820152606401610568565b6002600055565b6001600160a01b0380841660009081526006602052604080822054928516825281205490919081830361197c57670de0b6b3a764000091505b8060000361198f5750670de0b6b3a76400005b6000670de0b6b3a76400006119a48487611d9a565b6119ae9190611db1565b9050816119c382670de0b6b3a7640000611d9a565b6119cd9190611db1565b979650505050505050565b801561133757806119f183670de0b6b3a7640000611d9a565b6119fb9190611db1565b6001600160a01b038416600081815260066020526040908190208390555190917f0d86730737b142fc160892fa8a0f2db687a92a0e294d1ad70624cf5acef03b8491611a4991815260200190565b60405180910390a2505050565b6000821580611a63575081155b15611a7057506000611739565b600082611a7f85612710611d9a565b611a899190611db1565b905061271080821115611aa957611aa08183611dd3565b92505050611739565b506000949350505050565b600180546001600160a01b038381166001600160a01b0319831681179093556040519116919082907f8be0079c531659141344cd1fd0a4f28419497f9722a3daafe3b4186f6b6457e090600090a35050565b80356001600160a01b038116811461123857600080fd5b80151581146117b557600080fd5b60008060408385031215611b3e57600080fd5b611b4783611b06565b91506020830135611b5781611b1d565b809150509250929050565b60008060008060008060a08789031215611b7b57600080fd5b611b8487611b06565b9550611b9260208801611b06565b94506040870135935060608701359250608087013567ffffffffffffffff80821115611bbd57600080fd5b818901915089601f830112611bd157600080fd5b813581811115611be057600080fd5b8a6020828501011115611bf257600080fd5b6020830194508093505050509295509295509295565b600060208284031215611c1a57600080fd5b813567ffffffffffffffff811115611c3157600080fd5b82016101208185031215611c4457600080fd5b9392505050565b60008060408385031215611c5e57600080fd5b611c6783611b06565b946020939093013593505050565b600080600060608486031215611c8a57600080fd5b611c9384611b06565b9250611ca160208501611b06565b9150604084013590509250925092565b600060208284031215611cc357600080fd5b611c4482611b06565b600060208284031215611cde57600080fd5b5035919050565b60008060008060808587031215611cfb57600080fd5b611d0485611b06565b9350611d1260208601611b06565b93969395505050506040820135916060013590565b60005b83811015611d42578181015183820152602001611d2a565b50506000910152565b60008251611d5d818460208701611d27565b9190910192915050565b600060208284031215611d7957600080fd5b8151611c4481611b1d565b634e487b7160e01b600052601160045260246000fd5b808202811582820484141761173957611739611d84565b600082611dce57634e487b7160e01b600052601260045260246000fd5b500490565b8181038181111561173957611739611d84565b600060208284031215611df857600080fd5b5051919050565b600060033d1115611e185760046000803e5060005160e01c5b90565b601f8201601f1916810167ffffffffffffffff81118282101715611e4f57634e487b7160e01b600052604160045260246000fd5b6040525050565b600060443d1015611e645790565b6040516003193d81016004833e81513d67ffffffffffffffff8160248401118184111715611e9457505050505090565b8285019150815181811115611eac5750505050505090565b843d8701016020828501011115611ec65750505050505090565b611ed560208286010187611e1b565b509095945050505050565b60008151808452611ef8816020860160208601611d27565b601f01601f19169290920160200192915050565b6001600160a01b0385811682528416602082015260408101839052608060608201819052600090610c5990830184611ee0565b602081526000611c446020830184611ee056fea26469706673582212201df143d2ee82f2ec49e63e5bc83e92e3dc71bf7675fbdfbe2cf0ea2a411b4ed064736f6c63430008140033",
  "linkReferences": {},
  "deployedLinkReferences": {}
}